{
  "contractName": "SupplyChain",
  "abi": [
    {
      "inputs": [],
      "stateMutability": "nonpayable",
      "type": "constructor"
    },
    {
      "anonymous": false,
      "inputs": [
        {
          "indexed": true,
          "internalType": "address",
          "name": "employee",
          "type": "address"
        }
      ],
      "name": "EmployeeAdded",
      "type": "event"
    },
    {
      "anonymous": false,
      "inputs": [
        {
          "indexed": true,
          "internalType": "address",
          "name": "employee",
          "type": "address"
        }
      ],
      "name": "EmployeeFired",
      "type": "event"
    },
    {
      "anonymous": false,
      "inputs": [
        {
          "indexed": true,
          "internalType": "address",
          "name": "manager",
          "type": "address"
        }
      ],
      "name": "ManagerAdded",
      "type": "event"
    },
    {
      "anonymous": false,
      "inputs": [
        {
          "indexed": true,
          "internalType": "address",
          "name": "manager",
          "type": "address"
        }
      ],
      "name": "ManagerFired",
      "type": "event"
    },
    {
      "anonymous": false,
      "inputs": [
        {
          "indexed": true,
          "internalType": "address",
          "name": "previousOwner",
          "type": "address"
        },
        {
          "indexed": true,
          "internalType": "address",
          "name": "newOwner",
          "type": "address"
        }
      ],
      "name": "OwnershipTransferred",
      "type": "event"
    },
    {
      "anonymous": false,
      "inputs": [
        {
          "indexed": false,
          "internalType": "uint256",
          "name": "shipmentId",
          "type": "uint256"
        },
        {
          "indexed": false,
          "internalType": "string",
          "name": "location",
          "type": "string"
        }
      ],
      "name": "ShipmentAdded",
      "type": "event"
    },
    {
      "anonymous": false,
      "inputs": [
        {
          "indexed": false,
          "internalType": "uint256",
          "name": "shipmentId",
          "type": "uint256"
        }
      ],
      "name": "ShipmentCancelled",
      "type": "event"
    },
    {
      "anonymous": false,
      "inputs": [
        {
          "indexed": false,
          "internalType": "uint256",
          "name": "shipmentId",
          "type": "uint256"
        },
        {
          "indexed": false,
          "internalType": "enum SupplyChain.States",
          "name": "state",
          "type": "uint8"
        },
        {
          "indexed": false,
          "internalType": "string",
          "name": "location",
          "type": "string"
        }
      ],
      "name": "ShipmentStateChanged",
      "type": "event"
    },
    {
      "inputs": [
        {
          "internalType": "address",
          "name": "newAdmin",
          "type": "address"
        }
      ],
      "name": "transferOwnership",
      "outputs": [],
      "stateMutability": "nonpayable",
      "type": "function"
    },
    {
      "inputs": [],
      "name": "acceptOwnership",
      "outputs": [],
      "stateMutability": "nonpayable",
      "type": "function"
    },
    {
      "inputs": [
        {
          "internalType": "address",
          "name": "newManager",
          "type": "address"
        }
      ],
      "name": "addManager",
      "outputs": [],
      "stateMutability": "nonpayable",
      "type": "function"
    },
    {
      "inputs": [
        {
          "internalType": "address",
          "name": "_manager",
          "type": "address"
        }
      ],
      "name": "fireManager",
      "outputs": [],
      "stateMutability": "nonpayable",
      "type": "function"
    },
    {
      "inputs": [
        {
          "internalType": "address",
          "name": "newEmployee",
          "type": "address"
        }
      ],
      "name": "addEmployee",
      "outputs": [],
      "stateMutability": "nonpayable",
      "type": "function"
    },
    {
      "inputs": [
        {
          "internalType": "address",
          "name": "_employee",
          "type": "address"
        }
      ],
      "name": "fireEmployee",
      "outputs": [],
      "stateMutability": "nonpayable",
      "type": "function"
    },
    {
      "inputs": [
        {
          "internalType": "string",
          "name": "_location",
          "type": "string"
        }
      ],
      "name": "addShipment",
      "outputs": [
        {
          "internalType": "uint256",
          "name": "",
          "type": "uint256"
        }
      ],
      "stateMutability": "nonpayable",
      "type": "function"
    },
    {
      "inputs": [
        {
          "internalType": "uint256",
          "name": "_shipmentId",
          "type": "uint256"
        },
        {
          "internalType": "enum SupplyChain.States",
          "name": "_shipmentState",
          "type": "uint8"
        }
      ],
      "name": "changeShipmentState",
      "outputs": [],
      "stateMutability": "nonpayable",
      "type": "function"
    },
    {
      "inputs": [
        {
          "internalType": "uint256",
          "name": "_shipmentId",
          "type": "uint256"
        },
        {
          "internalType": "enum SupplyChain.States",
          "name": "_shipmentState",
          "type": "uint8"
        },
        {
          "internalType": "string",
          "name": "_location",
          "type": "string"
        }
      ],
      "name": "changeShipmentState",
      "outputs": [],
      "stateMutability": "nonpayable",
      "type": "function"
    },
    {
      "inputs": [
        {
          "internalType": "uint256",
          "name": "_shipmentId",
          "type": "uint256"
        }
      ],
      "name": "cancelShipment",
      "outputs": [],
      "stateMutability": "nonpayable",
      "type": "function"
    },
    {
      "inputs": [
        {
          "internalType": "uint256",
          "name": "_shipmentId",
          "type": "uint256"
        }
      ],
      "name": "checkShipmentStatus",
      "outputs": [
        {
          "internalType": "uint256",
          "name": "",
          "type": "uint256"
        },
        {
          "internalType": "enum SupplyChain.States",
          "name": "",
          "type": "uint8"
        },
        {
          "internalType": "string",
          "name": "",
          "type": "string"
        }
      ],
      "stateMutability": "view",
      "type": "function",
      "constant": true
    }
  ],
  "bytecode": "0x6080604052600160055534801561001557600080fd5b50336000806101000a81548173ffffffffffffffffffffffffffffffffffffffff021916908373ffffffffffffffffffffffffffffffffffffffff160217905550612984806100656000396000f3fe608060405234801561001057600080fd5b50600436106100a95760003560e01c806393371055116100715780639337105514610128578063b79b95161461015a578063d3cc53f214610176578063d57ed6e0146101a6578063f2fde38b146101c2578063f3cb8c31146101de576100a9565b80630e89e33f146100ae5780632d06177a146100ca57806357fe7cb6146100e657806379ba5097146101025780637faa7bc71461010c575b600080fd5b6100c860048036038101906100c39190611c3d565b6101fa565b005b6100e460048036038101906100df9190611c3d565b6103a9565b005b61010060048036038101906100fb9190611ce0565b610568565b005b61010a610908565b005b61012660048036038101906101219190611cb3565b610a98565b005b610142600480360381019061013d9190611cb3565b610d64565b6040516101519392919061222b565b60405180910390f35b610174600480360381019061016f9190611c3d565b610ead565b005b610190600480360381019061018b9190611c6a565b611104565b60405161019d9190612210565b60405180910390f35b6101c060048036038101906101bb9190611d20565b611391565b005b6101dc60048036038101906101d79190611c3d565b6117d3565b005b6101f860048036038101906101f39190611c3d565b6118a5565b005b60008054906101000a900473ffffffffffffffffffffffffffffffffffffffff1673ffffffffffffffffffffffffffffffffffffffff163373ffffffffffffffffffffffffffffffffffffffff1614610288576040517f08c379a000000000000000000000000000000000000000000000000000000000815260040161027f90612050565b60405180910390fd5b600260008273ffffffffffffffffffffffffffffffffffffffff1673ffffffffffffffffffffffffffffffffffffffff16815260200190815260200160002060009054906101000a900460ff16610314576040517f08c379a000000000000000000000000000000000000000000000000000000000815260040161030b90612070565b60405180910390fd5b600260008273ffffffffffffffffffffffffffffffffffffffff1673ffffffffffffffffffffffffffffffffffffffff16815260200190815260200160002060006101000a81549060ff02191690558073ffffffffffffffffffffffffffffffffffffffff167fb1e9d99bc9536b75422b77c46ce5ad61d1037857ed0cda04fa3a5aa01da6c79e60405160405180910390a250565b60008054906101000a900473ffffffffffffffffffffffffffffffffffffffff1673ffffffffffffffffffffffffffffffffffffffff163373ffffffffffffffffffffffffffffffffffffffff1614610437576040517f08c379a000000000000000000000000000000000000000000000000000000000815260040161042e90612050565b60405180910390fd5b60001515600260008373ffffffffffffffffffffffffffffffffffffffff1673ffffffffffffffffffffffffffffffffffffffff16815260200190815260200160002060009054906101000a900460ff161515146104ca576040517f08c379a00000000000000000000000000000000000000000000000000000000081526004016104c1906120b0565b60405180910390fd5b6001600260008373ffffffffffffffffffffffffffffffffffffffff1673ffffffffffffffffffffffffffffffffffffffff16815260200190815260200160002060006101000a81548160ff0219169083151502179055508073ffffffffffffffffffffffffffffffffffffffff167f3b4a40cccf2058c593542587329dd385be4f0b588db5471fbd9598e56dd7093a60405160405180910390a250565b600260003373ffffffffffffffffffffffffffffffffffffffff1673ffffffffffffffffffffffffffffffffffffffff16815260200190815260200160002060009054906101000a900460ff16806106095750600360003373ffffffffffffffffffffffffffffffffffffffff1673ffffffffffffffffffffffffffffffffffffffff16815260200190815260200160002060009054906101000a900460ff165b8061065f575060008054906101000a900473ffffffffffffffffffffffffffffffffffffffff1673ffffffffffffffffffffffffffffffffffffffff163373ffffffffffffffffffffffffffffffffffffffff16145b61069e576040517f08c379a0000000000000000000000000000000000000000000000000000000008152600401610695906120d0565b60405180910390fd5b816000600460008381526020019081526020016000206000015414156106f9576040517f08c379a00000000000000000000000000000000000000000000000000000000081526004016106f0906120f0565b60405180910390fd5b60078081111561070c5761070b6124dc565b5b6004600083815260200190815260200160002060010160009054906101000a900460ff166007811115610742576107416124dc565b5b1415610783576040517f08c379a000000000000000000000000000000000000000000000000000000000815260040161077a90612190565b60405180910390fd5b60066007811115610797576107966124dc565b5b6004600083815260200190815260200160002060010160009054906101000a900460ff1660078111156107cd576107cc6124dc565b5b141561080e576040517f08c379a000000000000000000000000000000000000000000000000000000000815260040161080590612150565b60405180910390fd5b600780811115610821576108206124dc565b5b826007811115610834576108336124dc565b5b1415610875576040517f08c379a000000000000000000000000000000000000000000000000000000000815260040161086c906121b0565b60405180910390fd5b816004600085815260200190815260200160002060010160006101000a81548160ff021916908360078111156108ae576108ad6124dc565b5b02179055507fb83d0044c84ee6865c24d17da46fddb80086b4743fed2b1ca0440be6ba2be7458383600460008781526020019081526020016000206002016040516108fb93929190612269565b60405180910390a1505050565b600160009054906101000a900473ffffffffffffffffffffffffffffffffffffffff1673ffffffffffffffffffffffffffffffffffffffff163373ffffffffffffffffffffffffffffffffffffffff1614610998576040517f08c379a000000000000000000000000000000000000000000000000000000000815260040161098f90612130565b60405180910390fd5b600160009054906101000a900473ffffffffffffffffffffffffffffffffffffffff1673ffffffffffffffffffffffffffffffffffffffff1660008054906101000a900473ffffffffffffffffffffffffffffffffffffffff1673ffffffffffffffffffffffffffffffffffffffff167f8be0079c531659141344cd1fd0a4f28419497f9722a3daafe3b4186f6b6457e060405160405180910390a3600160009054906101000a900473ffffffffffffffffffffffffffffffffffffffff166000806101000a81548173ffffffffffffffffffffffffffffffffffffffff021916908373ffffffffffffffffffffffffffffffffffffffff160217905550565b600260003373ffffffffffffffffffffffffffffffffffffffff1673ffffffffffffffffffffffffffffffffffffffff16815260200190815260200160002060009054906101000a900460ff1680610b3b575060008054906101000a900473ffffffffffffffffffffffffffffffffffffffff1673ffffffffffffffffffffffffffffffffffffffff163373ffffffffffffffffffffffffffffffffffffffff16145b610b7a576040517f08c379a0000000000000000000000000000000000000000000000000000000008152600401610b71906120d0565b60405180910390fd5b80600060046000838152602001908152602001600020600001541415610bd5576040517f08c379a0000000000000000000000000000000000000000000000000000000008152600401610bcc906120f0565b60405180910390fd5b600780811115610be857610be76124dc565b5b6004600083815260200190815260200160002060010160009054906101000a900460ff166007811115610c1e57610c1d6124dc565b5b1415610c5f576040517f08c379a0000000000000000000000000000000000000000000000000000000008152600401610c5690612190565b60405180910390fd5b60066007811115610c7357610c726124dc565b5b6004600083815260200190815260200160002060010160009054906101000a900460ff166007811115610ca957610ca86124dc565b5b1415610cea576040517f08c379a0000000000000000000000000000000000000000000000000000000008152600401610ce190612150565b60405180910390fd5b7f6c369efdf73d335dd2773310e330a52db609150879cf9b2a1969b6eaf80b0e6282604051610d199190612210565b60405180910390a160076004600084815260200190815260200160002060010160006101000a81548160ff02191690836007811115610d5b57610d5a6124dc565b5b02179055505050565b6000806060600060046000868152602001908152602001600020600001541415610dc3576040517f08c379a0000000000000000000000000000000000000000000000000000000008152600401610dba906121f0565b60405180910390fd5b60046000858152602001908152602001600020600001546004600086815260200190815260200160002060010160009054906101000a900460ff1660046000878152602001908152602001600020600201808054610e2090612401565b80601f0160208091040260200160405190810160405280929190818152602001828054610e4c90612401565b8015610e995780601f10610e6e57610100808354040283529160200191610e99565b820191906000526020600020905b815481529060010190602001808311610e7c57829003601f168201915b505050505090509250925092509193909250565b600260003373ffffffffffffffffffffffffffffffffffffffff1673ffffffffffffffffffffffffffffffffffffffff16815260200190815260200160002060009054906101000a900460ff1680610f4e5750600360003373ffffffffffffffffffffffffffffffffffffffff1673ffffffffffffffffffffffffffffffffffffffff16815260200190815260200160002060009054906101000a900460ff165b80610fa4575060008054906101000a900473ffffffffffffffffffffffffffffffffffffffff1673ffffffffffffffffffffffffffffffffffffffff163373ffffffffffffffffffffffffffffffffffffffff16145b610fe3576040517f08c379a0000000000000000000000000000000000000000000000000000000008152600401610fda906120d0565b60405180910390fd5b600360008273ffffffffffffffffffffffffffffffffffffffff1673ffffffffffffffffffffffffffffffffffffffff16815260200190815260200160002060009054906101000a900460ff1661106f576040517f08c379a000000000000000000000000000000000000000000000000000000000815260040161106690612170565b60405180910390fd5b600360008273ffffffffffffffffffffffffffffffffffffffff1673ffffffffffffffffffffffffffffffffffffffff16815260200190815260200160002060006101000a81549060ff02191690558073ffffffffffffffffffffffffffffffffffffffff167fc34a832d757b9fb8d21f0fa1ffd683119f285dc6472ac419b8c1bbb81c4a8ca060405160405180910390a250565b6000600260003373ffffffffffffffffffffffffffffffffffffffff1673ffffffffffffffffffffffffffffffffffffffff16815260200190815260200160002060009054906101000a900460ff16806111a9575060008054906101000a900473ffffffffffffffffffffffffffffffffffffffff1673ffffffffffffffffffffffffffffffffffffffff163373ffffffffffffffffffffffffffffffffffffffff16145b6111e8576040517f08c379a00000000000000000000000000000000000000000000000000000000081526004016111df906120d0565b60405180910390fd5b81600081511161122d576040517f08c379a000000000000000000000000000000000000000000000000000000000815260040161122490612110565b60405180910390fd5b606481511115611272576040517f08c379a0000000000000000000000000000000000000000000000000000000008152600401611269906121d0565b60405180910390fd5b61127a611ab8565b83816040018190525060008160200190600781111561129c5761129b6124dc565b5b908160078111156112b0576112af6124dc565b5b81525050600554816000018181525050806004600060055481526020019081526020016000206000820151816000015560208201518160010160006101000a81548160ff0219169083600781111561130b5761130a6124dc565b5b0217905550604082015181600201908051906020019061132c929190611aeb565b509050507fe1074db6c93cedf4b639dce1745eaf8c785509a5af172269259902183c767813600554856040516113639291906122a7565b60405180910390a16005600081548092919061137e90612464565b9190505550806000015192505050919050565b600260003373ffffffffffffffffffffffffffffffffffffffff1673ffffffffffffffffffffffffffffffffffffffff16815260200190815260200160002060009054906101000a900460ff16806114325750600360003373ffffffffffffffffffffffffffffffffffffffff1673ffffffffffffffffffffffffffffffffffffffff16815260200190815260200160002060009054906101000a900460ff165b80611488575060008054906101000a900473ffffffffffffffffffffffffffffffffffffffff1673ffffffffffffffffffffffffffffffffffffffff163373ffffffffffffffffffffffffffffffffffffffff16145b6114c7576040517f08c379a00000000000000000000000000000000000000000000000000000000081526004016114be906120d0565b60405180910390fd5b82600060046000838152602001908152602001600020600001541415611522576040517f08c379a0000000000000000000000000000000000000000000000000000000008152600401611519906120f0565b60405180910390fd5b600780811115611535576115346124dc565b5b6004600083815260200190815260200160002060010160009054906101000a900460ff16600781111561156b5761156a6124dc565b5b14156115ac576040517f08c379a00000000000000000000000000000000000000000000000000000000081526004016115a390612190565b60405180910390fd5b600660078111156115c0576115bf6124dc565b5b6004600083815260200190815260200160002060010160009054906101000a900460ff1660078111156115f6576115f56124dc565b5b1415611637576040517f08c379a000000000000000000000000000000000000000000000000000000000815260040161162e90612150565b60405180910390fd5b81600081511161167c576040517f08c379a000000000000000000000000000000000000000000000000000000000815260040161167390612110565b60405180910390fd5b6064815111156116c1576040517f08c379a00000000000000000000000000000000000000000000000000000000081526004016116b8906121d0565b60405180910390fd5b6007808111156116d4576116d36124dc565b5b8460078111156116e7576116e66124dc565b5b1415611728576040517f08c379a000000000000000000000000000000000000000000000000000000000815260040161171f906121b0565b60405180910390fd5b836004600087815260200190815260200160002060010160006101000a81548160ff02191690836007811115611761576117606124dc565b5b021790555082600460008781526020019081526020016000206002019080519060200190611790929190611aeb565b507fb83d0044c84ee6865c24d17da46fddb80086b4743fed2b1ca0440be6ba2be7458585856040516117c49392919061222b565b60405180910390a15050505050565b60008054906101000a900473ffffffffffffffffffffffffffffffffffffffff1673ffffffffffffffffffffffffffffffffffffffff163373ffffffffffffffffffffffffffffffffffffffff1614611861576040517f08c379a000000000000000000000000000000000000000000000000000000000815260040161185890612050565b60405180910390fd5b80600160006101000a81548173ffffffffffffffffffffffffffffffffffffffff021916908373ffffffffffffffffffffffffffffffffffffffff16021790555050565b600260003373ffffffffffffffffffffffffffffffffffffffff1673ffffffffffffffffffffffffffffffffffffffff16815260200190815260200160002060009054906101000a900460ff1680611948575060008054906101000a900473ffffffffffffffffffffffffffffffffffffffff1673ffffffffffffffffffffffffffffffffffffffff163373ffffffffffffffffffffffffffffffffffffffff16145b611987576040517f08c379a000000000000000000000000000000000000000000000000000000000815260040161197e906120d0565b60405180910390fd5b60001515600360008373ffffffffffffffffffffffffffffffffffffffff1673ffffffffffffffffffffffffffffffffffffffff16815260200190815260200160002060009054906101000a900460ff16151514611a1a576040517f08c379a0000000000000000000000000000000000000000000000000000000008152600401611a1190612090565b60405180910390fd5b6001600360008373ffffffffffffffffffffffffffffffffffffffff1673ffffffffffffffffffffffffffffffffffffffff16815260200190815260200160002060006101000a81548160ff0219169083151502179055508073ffffffffffffffffffffffffffffffffffffffff167f041109cfe10cfa549abb66b986d0a294ecc6c9ad39000abcb9c2afd422c8bd6460405160405180910390a250565b60405180606001604052806000815260200160006007811115611ade57611add6124dc565b5b8152602001606081525090565b828054611af790612401565b90600052602060002090601f016020900481019282611b195760008555611b60565b82601f10611b3257805160ff1916838001178555611b60565b82800160010185558215611b60579182015b82811115611b5f578251825591602001919060010190611b44565b5b509050611b6d9190611b71565b5090565b5b80821115611b8a576000816000905550600101611b72565b5090565b6000611ba1611b9c846122fc565b6122d7565b905082815260208101848484011115611bbd57611bbc61256e565b5b611bc88482856123bf565b509392505050565b600081359050611bdf81612910565b92915050565b600081359050611bf481612927565b92915050565b600082601f830112611c0f57611c0e612569565b5b8135611c1f848260208601611b8e565b91505092915050565b600081359050611c3781612937565b92915050565b600060208284031215611c5357611c52612578565b5b6000611c6184828501611bd0565b91505092915050565b600060208284031215611c8057611c7f612578565b5b600082013567ffffffffffffffff811115611c9e57611c9d612573565b5b611caa84828501611bfa565b91505092915050565b600060208284031215611cc957611cc8612578565b5b6000611cd784828501611c28565b91505092915050565b60008060408385031215611cf757611cf6612578565b5b6000611d0585828601611c28565b9250506020611d1685828601611be5565b9150509250929050565b600080600060608486031215611d3957611d38612578565b5b6000611d4786828701611c28565b9350506020611d5886828701611be5565b925050604084013567ffffffffffffffff811115611d7957611d78612573565b5b611d8586828701611bfa565b9150509250925092565b611d98816123ad565b82525050565b6000611da982612342565b611db3818561234d565b9350611dc38185602086016123ce565b611dcc8161257d565b840191505092915050565b60008154611de481612401565b611dee818661234d565b94506001821660008114611e095760018114611e1b57611e4e565b60ff1983168652602086019350611e4e565b611e248561232d565b60005b83811015611e4657815481890152600182019150602081019050611e27565b808801955050505b50505092915050565b6000611e6460168361234d565b9150611e6f8261258e565b602082019050919050565b6000611e87601e8361234d565b9150611e92826125b7565b602082019050919050565b6000611eaa60248361234d565b9150611eb5826125e0565b604082019050919050565b6000611ecd60228361234d565b9150611ed88261262f565b604082019050919050565b6000611ef0602e8361234d565b9150611efb8261267e565b604082019050919050565b6000611f13601d8361234d565b9150611f1e826126cd565b602082019050919050565b6000611f3660178361234d565b9150611f41826126f6565b602082019050919050565b6000611f59602a8361234d565b9150611f648261271f565b604082019050919050565b6000611f7c60218361234d565b9150611f878261276e565b604082019050919050565b6000611f9f60208361234d565b9150611faa826127bd565b602082019050919050565b6000611fc260218361234d565b9150611fcd826127e6565b604082019050919050565b6000611fe560268361234d565b9150611ff082612835565b604082019050919050565b6000612008602c8361234d565b915061201382612884565b604082019050919050565b600061202b601c8361234d565b9150612036826128d3565b602082019050919050565b61204a816123a3565b82525050565b6000602082019050818103600083015261206981611e57565b9050919050565b6000602082019050818103600083015261208981611e7a565b9050919050565b600060208201905081810360008301526120a981611e9d565b9050919050565b600060208201905081810360008301526120c981611ec0565b9050919050565b600060208201905081810360008301526120e981611ee3565b9050919050565b6000602082019050818103600083015261210981611f06565b9050919050565b6000602082019050818103600083015261212981611f29565b9050919050565b6000602082019050818103600083015261214981611f4c565b9050919050565b6000602082019050818103600083015261216981611f6f565b9050919050565b6000602082019050818103600083015261218981611f92565b9050919050565b600060208201905081810360008301526121a981611fb5565b9050919050565b600060208201905081810360008301526121c981611fd8565b9050919050565b600060208201905081810360008301526121e981611ffb565b9050919050565b600060208201905081810360008301526122098161201e565b9050919050565b60006020820190506122256000830184612041565b92915050565b60006060820190506122406000830186612041565b61224d6020830185611d8f565b818103604083015261225f8184611d9e565b9050949350505050565b600060608201905061227e6000830186612041565b61228b6020830185611d8f565b818103604083015261229d8184611dd7565b9050949350505050565b60006040820190506122bc6000830185612041565b81810360208301526122ce8184611d9e565b90509392505050565b60006122e16122f2565b90506122ed8282612433565b919050565b6000604051905090565b600067ffffffffffffffff8211156123175761231661253a565b5b6123208261257d565b9050602081019050919050565b60008190508160005260206000209050919050565b600081519050919050565b600082825260208201905092915050565b600061236982612383565b9050919050565b600081905061237e826128fc565b919050565b600073ffffffffffffffffffffffffffffffffffffffff82169050919050565b6000819050919050565b60006123b882612370565b9050919050565b82818337600083830152505050565b60005b838110156123ec5780820151818401526020810190506123d1565b838111156123fb576000848401525b50505050565b6000600282049050600182168061241957607f821691505b6020821081141561242d5761242c61250b565b5b50919050565b61243c8261257d565b810181811067ffffffffffffffff8211171561245b5761245a61253a565b5b80604052505050565b600061246f826123a3565b91507fffffffffffffffffffffffffffffffffffffffffffffffffffffffffffffffff8214156124a2576124a16124ad565b5b600182019050919050565b7f4e487b7100000000000000000000000000000000000000000000000000000000600052601160045260246000fd5b7f4e487b7100000000000000000000000000000000000000000000000000000000600052602160045260246000fd5b7f4e487b7100000000000000000000000000000000000000000000000000000000600052602260045260246000fd5b7f4e487b7100000000000000000000000000000000000000000000000000000000600052604160045260246000fd5b600080fd5b600080fd5b600080fd5b600080fd5b6000601f19601f8301169050919050565b7f596f7520617265206e6f7420746865206f776e65722100000000000000000000600082015250565b7f546869732061646472657373206973206e6f742061206d616e616765722e0000600082015250565b7f54686973206164647265737320697320616c726561647920616e20456d706c6f60008201527f7965652e00000000000000000000000000000000000000000000000000000000602082015250565b7f54686973206164647265737320697320616c72656164792061206d616e61676560008201527f722e000000000000000000000000000000000000000000000000000000000000602082015250565b7f596f7520617265206e6f7420617574686f72697a656420746f20706572666f7260008201527f6d207468697320616374696f6e21000000000000000000000000000000000000602082015250565b7f5468697320736869706d656e7420646f6573206e6f742065786973742e000000600082015250565b7f537472696e672063616e6e6f7420626520656d7074792e000000000000000000600082015250565b7f4f776e65727368697020686173206e6f74206265656e207472616e736665727260008201527f656420746f20796f752e00000000000000000000000000000000000000000000602082015250565b7f5468697320736869706d656e7420686173206265656e2064656c69766572656460008201527f2e00000000000000000000000000000000000000000000000000000000000000602082015250565b7f546869732061646472657373206973206e6f7420616e20656d706c6f7965652e600082015250565b7f5468697320736869706d656e7420686173206265656e2063616e63656c6c656460008201527f2e00000000000000000000000000000000000000000000000000000000000000602082015250565b7f4f6e6c79206d616e61676572732063616e2063616e63656c207468652073686960008201527f706d656e742e0000000000000000000000000000000000000000000000000000602082015250565b7f43616e6e6f74207365742076616c7565206c6172676572207468616e2031303060008201527f20636861726163746572732e0000000000000000000000000000000000000000602082015250565b7f5468697320736869706d656e7420646f6573206e6f7420657869737400000000600082015250565b6008811061290d5761290c6124dc565b5b50565b6129198161235e565b811461292457600080fd5b50565b6008811061293457600080fd5b50565b612940816123a3565b811461294b57600080fd5b5056fea2646970667358221220cd65a94780afa66e153a303e4c92d70f4f38ec5981a9002f0fb18279e4e2ecd264736f6c63430008070033",
  "immutableReferences": {},
  "source": "pragma solidity ^0.8.0;\r\n// SPDX-License-Identifier: MIT\r\n\r\ncontract SupplyChain {\r\n\r\n    // Event Logging: Events are emitted for important actions, allowing external listeners (dApps) to track these changes.\r\n    event OwnershipTransferred(address indexed previousOwner, address indexed newOwner);\r\n    event ManagerAdded(address indexed manager);\r\n    event ManagerFired(address indexed manager);\r\n    event EmployeeAdded(address indexed employee);\r\n    event EmployeeFired(address indexed employee);\r\n    event ShipmentAdded(uint shipmentId, string location);\r\n    event ShipmentStateChanged(uint shipmentId, States state, string location);\r\n    event ShipmentCancelled(uint shipmentId);\r\n\r\n    // Role-Based Access Control (RBAC)\r\n    address private admin; // Admin address, the owner of the contract\r\n    address private newAdminCandidate; // Candidate address for new admin\r\n    mapping(address => bool) private Managers; // Mapping to track managers\r\n    mapping(address => bool) private Employees; // Mapping to track employees\r\n\r\n    // Modifiers for access control to restrict certain functions based on the sender's role\r\n    modifier onlyAdmin {\r\n        require(msg.sender == admin, \"You are not the owner!\"); // Only the admin can execute\r\n        _;\r\n    }\r\n\r\n    modifier onlyManagers {\r\n        require(Managers[msg.sender] || msg.sender == admin, \"You are not authorized to perform this action!\");\r\n        _;\r\n    }\r\n\r\n    modifier onlyEmployees {\r\n        require(Managers[msg.sender] || Employees[msg.sender] || msg.sender == admin, \"You are not authorized to perform this action!\");\r\n        _;\r\n    }\r\n\r\n    // Functions to handle role management (Admin, Manager, Employee)\r\n\r\n    // Transfer ownership to a new admin (only callable by current admin)\r\n    function transferOwnership(address newAdmin) public onlyAdmin {\r\n        newAdminCandidate = newAdmin; // Set a candidate for new admin\r\n    }\r\n\r\n    // Accept ownership of the contract by the new admin\r\n    function acceptOwnership() public {\r\n        require(msg.sender == newAdminCandidate, \"Ownership has not been transferred to you.\");\r\n        emit OwnershipTransferred(admin, newAdminCandidate); // Emit event when ownership is transferred\r\n        admin = newAdminCandidate; // Update the admin to the new admin candidate\r\n    }\r\n\r\n    // Add a new manager (only callable by admin)\r\n    function addManager(address newManager) public onlyAdmin {\r\n        require(Managers[newManager] == false, \"This address is already a manager.\");\r\n        Managers[newManager] = true; // Mark address as manager\r\n        emit ManagerAdded(newManager); // Emit event for manager addition\r\n    }\r\n\r\n    // Fire an existing manager (only callable by admin)\r\n    function fireManager(address _manager) public onlyAdmin {\r\n        require(Managers[_manager], \"This address is not a manager.\");\r\n        delete Managers[_manager]; // Remove manager from the mapping\r\n        emit ManagerFired(_manager); // Emit event for manager firing\r\n    }\r\n\r\n    // Add a new employee (only callable by managers or admin)\r\n    function addEmployee(address newEmployee) public onlyManagers {\r\n        require(Employees[newEmployee] == false, \"This address is already an Employee.\");\r\n        Employees[newEmployee] = true; // Mark address as employee\r\n        emit EmployeeAdded(newEmployee); // Emit event for employee addition\r\n    }\r\n\r\n    // Fire an existing employee (only callable by managers or admin)\r\n    function fireEmployee(address _employee) public onlyEmployees {\r\n        require(Employees[_employee], \"This address is not an employee.\");\r\n        delete Employees[_employee]; // Remove employee from the mapping\r\n        emit EmployeeFired(_employee); // Emit event for employee firing\r\n    }\r\n\r\n    // Constructor sets the initial admin (deployer of the contract)\r\n    constructor() {\r\n        admin = msg.sender; // Set the contract creator as the initial admin\r\n    }\r\n\r\n    // Enum representing the possible states of a shipment\r\n    enum States {\r\n        ShipmentAdded,\r\n        Shipped,\r\n        Dispatched,\r\n        In_Transit,\r\n        Arrived,\r\n        OutForDelivery,\r\n        Delivered,\r\n        Cancelled\r\n    }\r\n\r\n    // Struct representing a shipment\r\n    struct shipment {\r\n        uint shipmentId; // Unique identifier for the shipment\r\n        States shipmentState; // Current state of the shipment\r\n        string location; // Current location of the shipment\r\n    }\r\n\r\n    // Mapping from shipment ID to the shipment struct\r\n    mapping(uint => shipment) private database;\r\n    uint private lastShipmentId = 1; // To track the next available shipment ID\r\n\r\n    // Modifier to ensure that a shipment exists and hasn't been cancelled or delivered\r\n    modifier checkShipment(uint _shipmentId) {\r\n        require(database[_shipmentId].shipmentId != 0, \"This shipment does not exist.\");\r\n        require(database[_shipmentId].shipmentState != States.Cancelled, \"This shipment has been cancelled.\");\r\n        require(database[_shipmentId].shipmentState != States.Delivered, \"This shipment has been delivered.\");\r\n        _;\r\n    }\r\n\r\n    // Modifier to ensure the string length is within limits (1-100 characters)\r\n    modifier stringLengthValidation(string memory str) {\r\n        require(bytes(str).length > 0, \"String cannot be empty.\");\r\n        require(bytes(str).length <= 100, \"Cannot set value larger than 100 characters.\");\r\n        _;\r\n    }\r\n\r\n    // Function to add a new shipment (only callable by managers)\r\n    function addShipment(string memory _location) public onlyManagers stringLengthValidation(_location) returns(uint) {\r\n        shipment memory newShipment;\r\n        newShipment.location = _location;\r\n        newShipment.shipmentState = States.ShipmentAdded; // Initially set to \"ShipmentAdded\"\r\n        newShipment.shipmentId = lastShipmentId;\r\n        database[lastShipmentId] = newShipment; // Store the new shipment in the database\r\n        emit ShipmentAdded(lastShipmentId, _location); // Emit event for the new shipment\r\n        lastShipmentId++; // Increment the shipment ID for the next shipment\r\n        return newShipment.shipmentId; // Return the new shipment ID\r\n    }\r\n\r\n    // Function to change the state of a shipment (with location update)\r\n    function changeShipmentState(uint _shipmentId, States _shipmentState, string memory _location) public onlyEmployees checkShipment(_shipmentId) stringLengthValidation(_location) {\r\n        require(_shipmentState != States.Cancelled, \"Only managers can cancel the shipment.\");\r\n        database[_shipmentId].shipmentState = _shipmentState; // Update shipment state\r\n        database[_shipmentId].location = _location; // Update shipment location\r\n        emit ShipmentStateChanged(_shipmentId, _shipmentState, _location); // Emit event for the state change\r\n    }\r\n\r\n    // Function to change the state of a shipment (without location update)\r\n    function changeShipmentState(uint _shipmentId, States _shipmentState) public onlyEmployees checkShipment(_shipmentId) {\r\n        require(_shipmentState != States.Cancelled, \"Only managers can cancel the shipment.\");\r\n        database[_shipmentId].shipmentState = _shipmentState; // Update shipment state\r\n        emit ShipmentStateChanged(_shipmentId, _shipmentState, database[_shipmentId].location); // Emit event for the state change\r\n    }\r\n\r\n    // Function to cancel a shipment (only callable by managers)\r\n    function cancelShipment(uint _shipmentId) public onlyManagers checkShipment(_shipmentId) {\r\n        emit ShipmentCancelled(_shipmentId); // Emit event for shipment cancellation\r\n        database[_shipmentId].shipmentState = States.Cancelled; // Update shipment state to \"Cancelled\"\r\n    }\r\n\r\n    // Function to check the status of a shipment by its ID\r\n    function checkShipmentStatus(uint _shipmentId) public view returns(uint, States, string memory) {\r\n        require(database[_shipmentId].shipmentId != 0, \"This shipment does not exist\");\r\n        return (database[_shipmentId].shipmentId, database[_shipmentId].shipmentState, database[_shipmentId].location);\r\n    }\r\n}\r\n",
  "sourcePath": "C:\\Users\\adity\\OneDrive\\Desktop\\ca3\\contracts\\SupplyChain.sol",
  "compiler": {
    "name": "solc",
    "version": "0.8.7+commit.e28d00a7.Emscripten.clang"
  },
  "schemaVersion": "3.4.16",
  "updatedAt": "2024-11-23T17:26:57.115Z",
  "networkType": "ethereum",
  "devdoc": {
    "kind": "dev",
    "methods": {},
    "version": 1
  },
  "userdoc": {
    "kind": "user",
    "methods": {},
    "version": 1
  }
}